:40000000020F69008F828E83E0540100000070F82278FFE4F6D8FD020FCA900120EFF0E4F53DF53EF53FF54075410AF542C200121CDAD2AF9044F474FDF0E4F539754800E8
:40004000754900754A35900120E0FF70067EFF7FFF80008F4B7B017A0179217D2C7C01120D508F3C900120E060021541E5416004E53C70C9E53C60030204FFC3E536940753
:40008000E53594004008900121E064016005753904807E900124E0FE900123E0FDEEF53DEDF53E7426253EF5827401353DF583E0FE7425253EF5827401353DF583E0FDEE8C
:4000C000F53AEDF53BE53E2407FFE4353DFED3EF9536EE9535400575390380357427253EF5827401353DF583E064176005753904801F7B017A017921E53E2404FDE4353D0F
:40010000FC12185BEF653B7003EE653A6003753908E4F537F538E53960030204EE900125E0F534753904900122E01207AE014C3101793201C13402EF3502FD370349380118
:40014000C13903843A04D83B000004EB2000030204EEE53E453D60030204EEFF120BBBEF70047F0180027F00900125EFF0753700753801E4F5390204EE2000030204EEE5FF
:400180003E6401453D60030204EEE534C3940140030204EE900589E0FEA3E0F5828E83120768EEF522752100900125F0E521A3F0A374FFF0E4A3F0F537753804F53902042B
:4001C000EE900122E06434703C2000030204EEE53E6403453D60030204EEE534C39440400FE534D3947F5008753F007540108006753F01754020AE3FAF407D007B017A0290
:40020000794D1208252000030204EEC3E53E9403E53D940050030204EEE53E24FDFFE53D34FFFE744D2540F97402353FA801FC7D017B017A01792812090DE53E24FDFFE57E
:400240003D34FFFEEF2540F540EE353FF53FE534C394404012E534D3947F500B121C70753D00753E108006753D01753E20E540653E7004E53F653D706B900127E0FE900172
:4002800026E0FDEEF53FEDF540E534D3943F502EE542702A7E017F20FD7B017A0379791208257B017A03797990049F7401F0A37420F07DFF7C00E4FF12113D7542017B019B
:4002C0007A02794D90049FE53DF0A3E53EF0AD40AC3FAF3412113DEF60047F0A80027F008F398003753903E4F53FF5400204EE2000030204EEE4F53FF5400204FF20000300
:400300000204EEE540253EFFE53F353DFED3EF942CEE9401502DE4F539AE3DAF3E744D2540F97402353FA801FC7D017B017A01792512090DE53E2540F540E53D353FF53FD2
:400340000204EE7539030204EEE53E453D60030204EE78237C00FD7BFF7A217980FE7F0812090DD200753700753808AE37AF3878257C017D017B007A00792312090DE4F5F0
:40038000390204EE2000030204EEE53E6403453D60030204EE900127E0FE900126E0FDEEF52DEDF52EE534C39440402BE534D3947F5024AE2DAF2E7C007D101207F88F322B
:4003C0008E318D308C2FE4754A10F549F548F5471215B48F338043AE2DAF2E7C017D001207F8C004C005C006C007AF34E4FCFDFEFBFA7901F81205EDD003D002D001D000B4
:400400001205D28F328E318D308C2FE4F54A754901F548F5471218EB8F33E534D3943F5072AF347E007C207D001207F8E42FFFE43EFEED3408FDE43CFCC004A905AA06AB5C
:4004400007AE2DAF2E7C007D201207F8D0001205D28F328E318D308C2FE4F52BF52CC3E52C9420E52B9400502AE4E52C2532FFE52B3531FEE43530FDE4352FA907AA06ABBF
:4004800005121CACEF2533F533052CE52C7002052B80CBE534702FAE2DAF2EFCFD7BFFFAF9F8C3120725701E7B107AFF79D0121CACC3E5339FF5337B107AFF79D1121CAC71
:4004C000C3E5339FF533E533F404900125F0E4F539F5377538018016E4FF120BBBEF70069046FA7480F0121CE480037539057B017A017921853747853848AF3912121B90B6
:400500000120E0700302003A30000302003A22BB010689828A83E0225002E722BBFE02E32289828A83E49322BB010689828A83F0225002F722BBFE01F322C5F0F8A3E02854
:40054000F0C5F0F8E582158270021583E038F022BB010A89828A83E0F5F0A3E022500687F009E71922BBFE07E3F5F009E3192289828A83E493F5F074019322BB0107898251
:400580008A8302053A500B09C5F027F7C5F01937F722BBFE0D09F8E325F0F3C5F019E338F322F889828A8374019325F0C5F0F8E4933822BB010A89828A83F0E5F0A3F022E5
:4005C0005006F709A7F01922BBFE06F3E5F009F31922EF2BFFEE3AFEED39FDEC38FC22C3EF9BFFEE9AFEED99FDEC98FC22E88FF0A4CC8BF0A42CFCE98EF0A42CFC8AF0EDC2
:40060000A42CFCEA8EF0A4CDA8F08BF0A42DCC3825F0FDE98FF0A42CCD35F0FCEB8EF0A4FEA9F0EB8FF0A4CFC5F02ECD39FEE43CFCEAA42DCE35F0FDE43CFC2275F00875A6
:400640008200EF2FFFEE33FECD33CDCC33CCC58233C5829BED9AEC99E58298400CF582EE9BFEED9AFDEC99FC0FD5F0D6E4CEFBE4CDFAE4CCF9A88222B800C1B90059BA0032
:400680002DEC8BF084CFCECDFCE5F0CBF97818EF2FFFEE33FEED33FDEC33FCEB33FB10D703994004EB99FB0FD8E5E4F9FA227818EF2FFFEE33FEED33FDEC33FCC933C91022
:4006C000D7059BE99A4007EC9BFCE99AF90FD8E0E4C9FAE4CCFB2275F010EF2FFFEE33FEED33FDCC33CCC833C810D7079BEC9AE899400AED9BFDEC9AFCE899F80FD5F0DA1B
:40070000E4CDFBE4CCFAE4C8F922EF4BFFEE4AFEED49FDEC48FC22C3E49FFFE49EFEE49DFDE49CFC22EB9FF5F0EA9E42F0E99D42F0E89C45F022E8600FECC313FCED13FDF9
:40074000EE13FEEF13FFD8F122E8600FEFC333FFEE33FEED33FDEC33FCD8F122E0FCA3E0FDA3E0FEA3E0FF22E493FC740193FD740293FE740393FF22E0F8A3E0F9A3E0FA15
:40078000A3E0FB22ECF0A3EDF0A3EEF0A3EFF022E0FBA3E0FAA3E0F922EBF0A3EAF0A3E9F022E493FB740193FA740293F922D083D082F8E4937012740193700DA3A393F8A8
:4007C000740193F5828883E4737402936860EFA3A3A380DFE5092582F582E5083583F583B508048582092210AF06858209F50822858209F508D2AF22EC8EF0A4CCC5F0CCF5
:40080000CDF8EFA4CEC5F02DFDE43CFCE8A42EC8C5F03DFDE43CFCEFA4FFE5F028FEE43DFDE43CFC22EF4E6012EF60010EEDBB010B89828A83F0A3DFFCDEFA2289F0500710
:40084000F709DFFCA9F022BBFEFCF309DFFCA9F022E709F608DFFA8046E709F208DFFA803E88828C83E709F0A3DFFA8032E309F608DFFA806EE309F208DFFA806688828C7A
:4008800083E309F0A3DFFA805A89828A83E0A3F608DFFA804E89828A83E0A3F208DFFA804280D280FA80C680D4805580F28029801080A680EA809A80A880DA80E280CA80D5
:4008C0002988848C8589828A83E493A30586F0A30586DFF5DEF3800B89828A83E493A3F608DFF9ECFAA9F0EDFB2288848C8589828A83E0A30586F0A30586DFF6DEF480E3AB
:4009000089828A83E493A3F208DFF980D688F0EF60010E4E60CD88F0ED2402B4040050C3F582EB2402B4040050B923234582239008A173900499EDF090049E7402F0EF12EE
:4009400007AE09AB0109D00209F4030986040A18050A3C06095B0700000A60900499E0FF7E007C017D001207F8C374D89FFF74FF9EFE74109DFDE49CFCA312078490049EFA
:400980007404F0020A6B900499E0FF7E007C017D001207F8C374D29FFF74FF9EFE74109DFDE49CFCA3120784020A6B900499E0FF7E007C017D001207F8C374C39FFF74FF1C
:4009C0009EFE74109DFDE49CFCA3120784020A6B900499E0FF7E007C017D001207F8C374C79FFF74FF9EFE74109DFDE49CFCA31207848077900499E0FF7E007C017D001263
:400A000007F8C374CB9FFF74FF9EFE74109DFDE49CFCA31207848053900499E0FF7E007C017D001207F8C374D69FFF74FF9EFE74109DFDE49CFCA3120784802F900499E076
:400A4000FF7E007C017D001207F8C374D49FFF74FF9EFE74109DFDE49CFCA3120784800BE4FFFEFDFC90049A12078490049EE06402705F90049A12075CEF2401FFE43EFE0F
:400A8000E43DFDE43CA907AA06AB05121CACE4FCFDFE90049F12078490049F120778C000C001C002C00390049A12075CA907AA06AB05121CACE4FCFDFE7808120749D0037C
:400AC000D002D001D00012070A90049F120784020BB490049A12075CEF2403FFE43EFEE43DFDE43CA907AA06AB05121CACE4FCFDFE90049F12078490049F120778C000C0E0
:400B000001C002C00390049A12075CEF2402FFE43EFEE43DFDE43CA907AA06AB05121CACE4FCFDFE7808120749D003D002D001D00012070A90049F12078490049F12077876
:400B4000C000C001C002C00390049A12075CEF2401FFE43EFEE43DFDE43CA907AA06AB05121CACE4FCFDFE7810120749D003D002D001D00012070A90049F12078490049F40
:400B8000120778C000C001C002C00390049A12075CA907AA06AB05121CACE4FCFDFE7818120749D003D002D001D00012070A90049F12078490049F12075C228F43AD437F00
:400BC00002120933EF2401FFE43EFEE43DFDE43CFCE4FB7A01F9F81205EDC004C005C006C007AD437F03120933D003D002D001D0001205D28F4B8E4A8D498C48C201E4F5EC
:400C00004CAD437F02120933EF2401FFE43EFEE43DFDE43CFCE4FB7A01F9F81205ED8F478E468D458C44AF4BAE4AAD49AC48AB47AA46A945A844C3120725503285478285B3
:400C40004683E493F54D6005F46002D201E54D254CF54CAF47AE46AD45AC44E47B01FAF9F81205D28F478E468D458C4480B8AD437F02120933EF2401FFE43EFEE43DFDE408
:400C80003CFCE4FB7A01F9F81205ED78031207368F478E468D458C44E47FC07EFFFDFCAB4BAA4AA949A848C31207257007FF7E20FDFC800DAF4BAE4AAD49AC487803120727
:400CC000368F4B8E4A8D498C48AF4BAE4AAD49AC48AB47AA46A945A844C31207255039E42547FFE43546FEE5453408FDE43544A907AA06AB05121CACEF254CF54CAF47AEA5
:400D000046AD45AC44E47B01FAF9F81205D28F478E468D458C4480B1E54CF404F54CAF437E007C017D001207F8120717EF24C0FFEE34FFFEED3410FDE43CA907AA06AB0576
:400D4000121CACEFB54C032001037F06227F00228B438A4489458C468D47755405E4F54CF54DE54B75F00AA4FFC3E54D9FE54C95F0503B1217C5EF60221217C57552008F3B
:400D800053E47F19FEFDFC12154F1217C5D3EF9553E4955250E3E4F5548013E47F01FEFDFC12154F054DE54D7002054C80B4AB48AA49A94AE4F5F01205B3E4F54EF54F126C
:400DC00017C5EFD394005003020E681217C57550008F51AB48AA49A94AE5508551F012057BAB48AA49A94A120550C39547E5F09546505FE4F54CF54DC3E54D9551E54C95B7
:400E0000505025121930AB43E545254FF9E544354EFAEF120528054FE54F7002054E054DE54D7002054C80D0AB43E54F24FFFFE54E34FFFEE5452FF9E5443EFA12050F6470
:400E4000177003020DBFE47F05FEFDFC12154F020DBFAB48AA49A94A120550C39551FFE5F095508FF01205B3AF54227B007A4679E8121CACEF4401FD7B007A4679E8121CF6
:400E8000B8E4F523E523C39409502CE52375F005A4244EF582E43421AF82F5218F22F5831207A28F82852183740393FC740493FD121BDE052380CD7E1D7F21121A6F7B011D
:400EC0007A507903121CACEF4402FD7B017A507903121CB87B017A507913121CACEF4402FD7B017A507913121CB89043A0E04440F09043C2E04410F07C1D7D117B007A5175
:400F000079127F087E00121B227C1D7D197B007A5179227F087E00121B229044F47401F0904322E04408F09046ECE0C394055006904689743AF090480074F1F012105690AA
:400F4000480074B1F0121BA87B007A4379A0C00179B0900005120799D0017F0E7E00121A3B9043B0E054FDF02275930078007583467582E8E04401F0009046ECE0F9904691
:400F8000FAE0FAB903225420B40012B8001AEA901FFFF07401901FFEF09046F6F0901FFEE06005901FFFE0FA90480074C0F0758155121B6990000078007920E4F0A3D8FCDA
:400FC000D9FAEA90057DF002001175081F7509FD120E6B021011021D08E493A3F8E493A34003F68001F208DFF48029E493A3F85407240CC8C333C4540F4420C8834004F46E
:4010000056800146F6DFE4800B0102040810204080901811E47E019360BCA3FF543F30E509541FFEE493A360010ECF54C025E060A840B8E493A3FAE493A3F8E493A3C8C583
:4010400082C8CAC583CAF0A3C8C582C8CAC583CADFE9DEE780BE7B007A4079807D337C00121C8E9040827418F09043007402F09040007408F09042007403F07B0C7A01792C
:4010800008121CAC9046A1EFF07B007A4279227D087C00121C8E7B007A4279207D517C12121C8EE4900004F07F19FEFDFC90000012078490000012075CD3EF9400EE940080
:4010C000403B900004E0FF64036032904225E05401FEEF25E04E5403900004F0E47FE07E01FDFC121A0090000012075C74FFFBFAF9F81205D290000012078480B6900000A1
:4011000012075CEF4E70057F03121D0E7B007A4079047D007C01121C8E9040047407F0904006E4F09040087448F0904004E4F09040017402F09043A2E04401F0229004993C
:40114000EFF0A3ECF0A3EDF0A3120799121B89EF600302120F900499E0FF90049C12079090049FE0FDA3E09004A6CDF0A3EDF012147E9004A1EFF06407600302120A9047A7
:4011800022E0540270087F01FE121ACC80F0904722E054026009E0FF1313543FFF80027FFFEF70069004A1F080069004A174FFF09004A1E07054900499E0FFA3E0FCA3E0BB
:4011C000FD900585E0FBA3E09004A6F01217719004A1EFF064077032904722E0540270087F01FE121ACC80F0904722E054026009E0FF1313543FFF80027FFFEF70069004E0
:40120000A1F080069004A174FFF0121CC480069004A17404F09004A1E0FF228B448A4589467401120528AB442546F9E43545FAEF120528E548AB44E5462402F9E43545FAFC
:40124000E548120528E547FFAB44E5462403F9E43545FAEF120528AB44AA45A946E5482404FDE43547FC12185B8E498F4AEFAB44E5482404FDE43547FCE5462DF9E5453C24
:40128000FAEF120528E549FFAB44E5482405FDE43547FCE5462DF9E5453CFAEF120528AB44E5482406FFE43547FEE5462FF9E5453EFA7417120528E5482407FDE43547FC89
:4012C000755000755100755247755396AB44AA45A9461218A422C0E0C083C082C085C084C086758600C093759300C0D075D000C004C005C006C007E4FFA2AF33FED2AF908F
:4013000044F474FDF090646EE0FDED30E54C90644DE0FC90052DE024ACF582E43404F583ECF07F01EF602C9004AAE060069005307401F090052DE004F0E0C394404002E435
:40134000F09004ABE0FC90052DE0B504069004AA7401F090646EE0FD80B0AF06EE24FF92AFD007D006D005D004D0D0D093D086D084D085D082D083D0E0321219E8EF6005A2
:401380007F00121C0F7B017A007900121615EF60057F00121C0F900589E0FEA3E0F5828E831207688F4A8E498D488C47E4FFFEFDFC1218EB900587E0FCA3E0F5828C83E401
:4013C00093FEC3EF9EFFF404FFB50612900589E0FEA3E0F5828E83120768EF4E70057F00121C0FE4FF120BBB9046FAE054C064406003EF60099046FAE4F0FF12001A121C78
:40140000D022C0E0C083C082C085C084C086758600C093759300C0D075D000C006C007A2AFE433FFD2AF9044F474FDF090052EE0FE9004ECE06E602C90646FE020E2259008
:4014400004ECE0C394404002E4F09004ECE024EDF582E43404F583E090644BF09004ECE004F080C8EF24FF92AFD007D006D0D0D093D086D084D085D082D083D0E0329004AB
:40148000A31207999004A87407F0904722E05402604B90472074B6F074D5F07402F0904722E05402702F904720EFF0E4FFFED39004A7E09F9004A6E09E40289004A3120724
:4014C00090E92FF9EA3EFA12050F904720F00FEF70010E80D99004A87409F080069004A87404F09004A8E0FF22A90790052EE0FF9004ECE0FEEFC39E501AEE24FFFDE434A6
:40150000FFFCEF7A00B50508EAB504047D0180027D00800CC3EF9EB43F047D0180027D00ED70C8EEB5070D90646FE020E20690644BE9F022EFC394404002E4FF74ED2FF580
:4015400082E43404F583E9F00F90052EEFF02290FFFC1207D412078485088385098212075CD3EF9400EE9480402E90057E12075C121A00850883850982C083C08212075C6B
:40158000E42FFFEE3480FEED34FFFDEC34FFFCD082D08312078480C090057412075C8508838509821207781205ED121A009000041207D4228F468E458D448C43E4F54BD37E
:4015C000E54A9400E54994004048AF4AAE49AD48AC4774FFFBFAF9F81205D28F4A8E498D488C47E546254AFFE5453549FEE5443548FDE5433547FCE42FFFEE3480FEE43D17
:40160000FDE43CA907AA06AB0512050F254BF54B80ADAF4B22900120120799E4900123F0121C39900120120790E94A4B70149005821207909005821207999001237401F00E
:401640008029121B89EF60149005821207909005821207999001237404F0800F900120120790900582120799121CC4900123E0FF22121C3990012174FFF0121B89EF703BDE
:401680007F01121A9DEF6407702C7B017A0579857D021216C7EFB40215E4900121F0904722E0540270107F01FE121ACC80F0904722E0540260D4121CC480069001217404AA
:4016C000F0900121E0FF22900122120799900125EDF0E4A3F0900125E0FFA3E0C39F5037904722E054016003D38001C340097F017E00121ACC80E9904720E0FF90012212EC
:401700000790900126E029F9E43AFAEF120528900126E004F080BE900126E0FF2290049AECF0A3EDF0900499EFF0541F25E0FFE433FEE42FFFEE3444FAA9077B01121C8123
:4017400090049CEEF0A3EFF0900499E075F002A42400FFE5F03444FAA9077B01A3E0FEA3E0FFFDAC06121C9090049CE0FEA3E0FF229004A3ECF0A3EDF0AC077D0790472246
:40178000E05402603B90472074B6F074D8F07405F0904722E054027023904720ECF09004A3E0904720F09004A3E0A3E0904720F0EBF09004A6E0904720F080067D09800224
:4017C0007D04AF0522121CF390052DE0FE9004ABE0B506119004AAE0D3940040047F40802CE4FF802890052DE0FE9004ABE0C39E500BE0FE90052DE0C39EFF80109004ABFD
:40180000E0FEC374409EFE90052DE02EFF121CEC22420587217B420589217C430582000000440579016E360044057400005DC04105781844057E2EE0000041052F00410465
:40184000EC0041052E004104AB0041052D004104AA004105300041058D00008B4B8A4C894DE4F54EF54FD3ED9400EC94004025AB4BED24FFFFEC34FFFEE54D2FF9E54C3E5C
:40188000FA12050F254FF54FE4354EF54EED1D70011C80D2E54FF4FFE54EF4FEEF2401FFE43EFE228B4B8A4C894D8C4E8D4FE4F554F555121AF9AB4BE54D2555F9E54C3547
:4018C00054FA12050FFF1214E90555E55570020554C3954FE554954E40DCAB50AA51A952E54E854FF01205B37F00228F468E458D448C43E4F54BD3E54A9400E549940040D1
:401900002CAF4AAE49AD48AC4774FFFBFAF9F81205D28F4A8E498D488C47E5462FFFE5453E8F82F583E493254BF54B80C9AF4B22121CF39004ABE0FE90052DE0FD9004AA18
:40194000E07004EE6D602474AC2EF582E43404F583E0FF0EEEC394404002E4FE9004ABEEF09004AAE06009E4F0800590644DE0FF121CEC227C127DD6E4FF12171D7D07E47A
:40198000FF121BC590648A7469F090648E7420F07C147D027F0112171D7D077F01121BC590642F7407F090643F7448F090648F7402F022121C24900499EFF090649AE04492
:4019C00020F090649EE04410F09044C07401F090649FE04410F09044C07402F0121C9D900499E0FF121BF722121671900120EFF07008121671900120EFF0900120E0FF22DE
:401A0000EC4D4E700D78FCEF24E950032840FD2200007BF178DA0000EF28FF78FFEE38FEED38FDEC38FC50E7EF2BFFEE38FEED38FDEC38FC40F22205020304758600EF4E57
:401A40006027EF60010E759300900005E0F595A3E0F585A3E0F5848B938A838982E0A30586F0A31586DFF6DEF4E4F593F59522ACEAADA08E838F82E493F9601CA3E493F550
:401A8000EAA3E493F5A0A3E49360F1FAA3E493F8A3E493F2DAF6D9E48DA08CEA227E07904722E05402601F90472074B6F074E1F0740EF0904722E054027007904720EFF041
:401AC00080067E0980027E04AF062200EEFA900578E0F88FF0A4FFAEF0E88AF0A42EFEE5F03400FDEF24C9FF78FFEE38FEED38FDE438FC5003021A0022121C2490649DE035
:401B00004401F0E054FEF0121BF7121CF3E49004ABF090052DF09004AAF0900530F0121CEC22758600EF4E601BEF60010E8C838D828B958A858984E493A30586F0A31586E7
:401B4000DFF5DEF3E4F59522121C2490649BE04401F0E054FEF0121BF7121D01E49004ECF090052EF0121CFA229046FAE054C064807015F0FD7F01120933EF4E600AE4FD03
:401B80007F01120933121C61229004A27404F0121C2490058DE0700704F0E49004A2F0121BF79004A2E0FF227B0C7A0179CF121CACEF540790586EF0EFC4540FA3F090589F
:401BC000767444F022AC07ED540775F020A4FFEC541F2480F582E43444F583EFF022EC4D6011ED60010C8B938A838982E4F0A3DDFCDCFA75930022EF54016004D2AF8002FE
:401C0000C2AFEF5402FF9044F4E054FD4FF02290FFFF1207D4EFF09046EA7401F09000011207D4229044F4E0F84402F0E85402FF10AF012274014FFF22121C249043A0E0F7
:401C40004408F09043B0E04408F0121BF72290052FE0700912197490052F7401F01219B32290057DE0FA8E838F827400758101739043ACE04410F09043BCE04410F0228B6F
:401C8000938A838982E0FFA3E0FE759300228B938A838982EDF0A3ECF0759300229043A2E04401F09043B2E04401F0228B938A838982E0759300FF228B938A838982EDF09B
:401CC00075930022121C24E490058DF0121BF7229046FA7480F0121CE422121C4E121AF9121B48229046F6E04401F0229044C07401F0229044C87401F0229044C07402F0D1
:401D0000229044C87402F02212137A80FE2280FE22007F7B007B00000030D8C800D800000012005205082909411058111814200064047B3F8A698E3A8F0F010102E208E669
:401D40000101090A83109A049B10A101AC04AD01B101B210B310E004010A41014F02C703300439050C06C6080F09040AF00E840F7310F8110212011320143F154316C0177A
:401D80003C1810190C1B731C201D7D2020210826082780283029082C082D032E422F1032FF333F343135C038803B283E4456025713580459045B045F01C043C105C5E0C654
:401DC0000CC70BC816C9FFCAFFCBFFCEF0CF44D00CDA04DB04DF01E6C0EA40EB02010B4700240180024203800AC50B2010091101122019682024221C280529082A02325A96
:401E0000382839023A4044504D404F01568057085A0269156B026D826E206F10701C710872077604770185408701894091409242932094049515962D9701985199809D206A
:401E40009E809F02A220A380A508A608A708AF04B001B202B310C00FC20FC40FCA0FCC0FCE0FD0C0D210D601E002E408EC08010C5C0013010402640380045909480B870C14
:401E8000130E2C11811362171819E41B111C8020032204266E29A02C402D612F8E306832103307348035F8360F38083A823B083E10580459045F01823F830484C686398CC0
:401EC0001E8E0190DD9222930194C8950298489C88A088A4E7A618A823AADCAB04AC01AE16B0E0B104B302B408B501B61FBA82BF05C061C104C202C405C50EC7C0C821C9E7
:401F0000FFCAFFCBFFCC62CDA0CEF0CF41D00CD804D904DA04DB04DF01E640E702E910EA30EB10ED10EE10EF12010D430004018003800541071009080A450F011001110112
:401F4000121816A219921A401D411E0A1F06210122202310271C280829202F0A300133043601371838023E224088438048104A0A50016802784279027A0188828B109140A3
:401F80009202932095149668970198109A329C439D929E809F12A380A410A605A702B280B320C0BDC28FC4BFCA34CCE3CEA1D00DD20C010E4F020F0409060609030A200C28
:401FC000010E04100612091503160F180919011A061B021E20201021012302241028102C092E0230083101320734203610370239803A083E103F01541A5604580459045B87
:40200000045F0182018601910399019C02A001A601AB02AC01AD03B001B103B202B402B902BE11BF01C001C510C750C822C9FFCA07CBFFCC40CD20CEF0CF05D008D401D6F3
:4020400004D804D904DA04DB04DF01E040E1A8E240E320010F3800200180021003800680071009800A680C100D200F02100111141302144015401620182419011B801C4051
:402080001D201F0821802201274029022D402E202F0A32143601371038203A103B2047404F02560259115C405E085F216086678080808740C03FC28FC4BFCA31CCA6CE04EF
:4020C000D010D6F5D88D011904A901AA04E801EC010140073240358082408580CC30E210E68001450A0C0857015A015C0864048804C204D607D801E40101460A84208701AD
:402100008902A701AC08B008B201E404EC01EE0401470683089902A020A102B102E801014C0F502057085B085D025F80610299029B88A020A102A308AB88D406D607D80254
:4021400001500300010C010E01015101000F005100001000513000400051C000100051F00010010000100001140008000140000A00014C00020001500000202C0000220071
:402180006930091E03140101000000000000000000000000000000000000000000000000000000000000000000000000000000000000000000000000000000000000000046
:4021C00000000000000000000000000000000000000000000000000000000000000000000000000000000000000000000000000000000000000000000000000000000000DF
:40220000000000000000000000000000000000000000000000000000000000000000000000000000000000000000000000000000000000000000000000000000000000009E
:40224000000000000000000000000000000000000000000000000000000000000000000000000000000000000000000000000000000000000000000000000000000000005E
:40228000000000000000000000000000000000000000000000000000000000000000000000000000000000000000000000000000000000000000000000000000000000001E
:40FFC00000000000000000000000000000000000000000000100010000000000000000000000000000000000000000000000000000000000000000000000000000000000FF
:0200000480007A
:4000000000000000000000000000000000000000000000000000000000000000000000000000000000000000000000000000000000000000000000000000000000000000C0
:400040000000000000000000000000000000000000000000000000000000000000000000000000000000000000000000000000000000000000000000000000000000000080
:400080000000000000000000000000000000000000000000000000000000000000000000000000000000000000000000000000000000000000000000000000000000000040
:4000C0000000000000000000000000000000000000000000000000000000000000000000000000000000000000000000000000000000000000000000000000000000000000
:0200000490006A
:040000000800C0072D
:0200000490105A
:04000000BC90ACAF55
:0200000490303A
:020000001502E7
:0200000490501A
:0C00000000011E09306903011E18456B49
:0200000490402A
:4000000000000000000000000000000000000000000000000000000000000000000000000000000000000000000000000000000000000000000000000000000000000000C0
:00000001FF
